:020000040800F2
:1000000000000820511D0008291C00082B1C0008B6
:100010002D1C00083D1C00083F1C000800000000CB
:10002000000000000000000000000000519B0008DC
:10003000411C000800000000F19B0008559C0008CE
:10004000A11D0008A11D0008A11D0008A11D000898
:10005000A11D0008A11D0008A11D0008A11D000888
:10006000A11D0008A11D0008A11D0008A11D000878
:10007000A11D0008A11D0008A11D0008A11D000868
:10008000951C0008691C0008A11D0008A11D00089E
:10009000A11D0008A11D0008A11D0008A11D000848
:1000A000A11D0008A11D0008A11D0008A11D000838
:1000B000A11D0008A11D0008A11D0008A11D000828
:1000C000A11D0008A11D0008A11D0008A11D000818
:1000D000A11D0008A11D0008311C0008A11D000879
:1000E000511C0008A11D0008A11D0008A11D000849
:1000F000A11D0008A11D0008A11D0008A11D0008E8
:10010000A11D0008B1440008A11D0008A11D0008A0
:10011000A11D0008A11D0008A11D0008451C000824
:10012000A11D0008A11D0008A11D0008D54400085C
:10013000C11C0008B51C0008A11D0008A11D000875
:10014000A11D0008A11D0008A11D0008B925010876
:10015000A11D0008C31C0008A11D0008A11D000866
:10016000A11D0008A11D0008A11D0008A11D000877
:10017000A11D0008C1250108A11D00080000000004
:10018000A11D0008A11D0008A11D0008A11D000857
:10019000A11D0008A11D0008A11D0008A11D000847
:1001A000A11D0008A11D0008A11D0008A11D000837
:1001B000A11D0008A11D0008A11D0008A11D000827
:1001C000A11D0008A11D000800000000A11D0008DD
:1001D000A11D0008A11D0008A11D0008A11D000807
:1001E000A11D0008A11D0008A11D0008A11D0008F7
:0801F000A11D0008A11D00087B
:1002000010B5054C237833B9044B13B10448AFF350
:1002100000800123237010BD282200200000000070
:10022000486A010808B5034B1BB103490348AFF303
:10023000008008BD000000002C220020486A010850
:10024000034613F8012B002AFBD1181A0138704716
:1002500001F0FF01102A2BDB10F0070F08D010F877
:10026000013B013A8B422DD010F0070F42B3F6D17B
:10027000F0B441EA012141EA014122F007047FF094
:1002800000070023F0E80256083C85EA010586EAEB
:10029000010685FA47F5A3FA87F586FA47F6A5FA27
:1002A00087F68EB9EED1F0BC01F0FF0102F0070233
:1002B00032B110F8013B013A83EA010313B1F8D1DE
:1002C0000020704701387047002D06BF35460338BF
:1002D000073815F0010F07D1013015F4807F02BFF8
:1002E000013015F4C03F0130F0BC0138704700BF49
:1002F00053B94AB9002908BF00281CBF4FF0FF318D
:100300004FF0FF3000F088B9ADF1080C6DE904CE74
:1003100000F006F8DDF804E0DDE9022304B07047E0
:100320002DE9F047089D8E4604468846002B4AD1A9
:100330008A42174662D9B2FA82F64EB1C6F120035C
:1003400001FA06F820FA03F3B74043EA0808B4407C
:100350004FEA174E1FFA87FCB8FBFEF1230C0EFB89
:10036000118843EA084301FB0CF29A4209D9FB18B1
:1003700001F1FF3080F0EA809A4240F2E7800239D2
:100380003B449A1AA3B2B2FBFEF00EFB102243EAE2
:10039000024300FB0CFC9C4509D9FB1800F1FF321D
:1003A00080F0D6809C4540F2D3803B44023840EA3E
:1003B0000140A3EB0C0300211DB1F3400022C5E96D
:1003C0000032BDE8F0878B4205D90DB1C5E90001C7
:1003D00000210846F5E7B3FA83F1002946D17345B9
:1003E00002D3824200F20581841A6EEB03020120DF
:1003F0009046002DE5D0C5E90048E2E7002A00F06C
:100400009080B2FA82F6002E40F0A4808A1A030C83
:100410004FEA174E80B2BCB20121B2FBFEFC0EFBCC
:100420001C2243EA024304FB0CF29A4207D9FB1850
:100430000CF1FF3802D29A4200F2E080C4469B1AC7
:10044000B3FBFEF20EFB123340EA034302FB04F45B
:100450009C4207D9FB1802F1FF3002D29C4200F205
:10046000CA8002461B1B42EA0C40A5E7C1F12006E8
:100470008B4022FA06F71F430EFA01F420FA06F326
:100480002EFA06FE4FEA1749234300FA01F81FFA35
:1004900087FCBEFBF9F01C0C09FB10EE44EA0E448D
:1004A00000FB0CFEA64502FA01F209D93C1900F145
:1004B000FF3A80F09C80A64540F2998002383C4487
:1004C000A4EB0E041FFA83FEB4FBF9F309FB1344FB
:1004D0004EEA044403FB0CFCA44508D93C1903F183
:1004E000FF3E80F08280A4457FD9023B3C4443EA32
:1004F0000040A4EB0C04A0FB02EC64457346E1460B
:1005000062D35FD05DB1B8EB030264EB090404FA77
:1005100006F622FA01F31E43CC40C5E9006400212F
:100520004FE7B1FBF2FC010C41EA0E4180B240EA18
:1005300001423B4638463C46B846BE462026B1FB03
:10054000F7F1A2EB080241EA0C4166E7014618E721
:1005500010462CE7C6F120022EFA02F3B740B14054
:1005600020FA02F24FEA174E0A43B3FBFEF8BCB280
:100570000EFB1833110C41EA034108FB04F9B040AB
:1005800089454FEA104380B23ED9791808F1FF3C03
:1005900001D289451FD8A1EB0901B1FBFEF909FB86
:1005A00004F80EFB191192B242EA0142424529D2E7
:1005B000BA1809F1FF31C4D24245C2D2A9F10201F1
:1005C0003A44BEE7F0459DD2BEEB02036CEB070C4C
:1005D0000138E14696E7A7EB09094944A8F1020C66
:1005E000B1FBFEF909FB04F8DBE773467FE75046F1
:1005F00066E70846FDE63B44023A33E7ACF1020CFD
:100600003B441CE749469CE7A1EB0901C446B1FB0A
:10061000FEF909FB04F8C4E7704700BF0B4C012644
:1006200008B54FF480355020A66108F025FD502014
:10063000A56108F021FD5020A66108F01DFD4FF4D2
:100640003E70A56108F018FDEBE700BF0004024012
:100650002DE987488D4A4FF40051DFF85482136B1F
:1006600043F004031363136B03F004030193019B32
:10067000D8F8000091FAA1F3B3FA83F34FF003091D
:100680005B0009FA03F320EA030391FAA1F0C8F82A
:100690000030D8F80C0091FAA1F3B3FA83F35B00B1
:1006A00009FA03F320EA030391FAA1F1C8F80C3028
:1006B000536C774843F480435364536CF02203F443
:1006C00080430093009B436992FAA2F20221B2FA9E
:1006D00082F223F0F0036F4C01FA02F26E4EDFF863
:1006E000D4A140F2012113436C4D6D4F43616D4B1A
:1006F000DFF8C4B11A6842F400521A60DA6842F4B2
:100700000052DA605022684B83F828234FF480723D
:100710005A600023654A33601360CAF800302B60CA
:100720002370A37063703B6023788BBBD8F81030C4
:1007300013F4005310D163702868142800F28180EC
:100740002868022840F2858001202070306800F07F
:10075000030040F480607BE01368012B2B684AD0D3
:10076000142B4FF001033CD92370336803F00303CB
:1007700043F4A063336000232B600123CAF80030E8
:10078000DAF80030012B3ED0032B4CD0012313604C
:100790002378FBB100232370637803F0FF00CBB90B
:1007A00033688B426DD040F2014C634566D040F215
:1007B000011C63450ED13B68002B56D03860DBF836
:1007C00014301804DB4300F0804003F480430343FB
:1007D000CBF81830142008F04FFC344A40F20121C5
:1007E000A2E728680228C6D92370336803F0030300
:1007F00043F48063BEE701332B6013B91A232B60E7
:10080000BEE72B68BCE72868022804D1237040F2B9
:1008100001133360BAE728681428B7D1CAF80090EA
:1008200023703160B2E72B680620143BB3FBF0FC69
:1008300000FB1C33002BA9D10123237040F20133AC
:10084000E7E701202070306800F0030040F4A0606A
:100850003060386810B1386801383860002028608E
:100860004FF0FF30CAF8000091E7DBF814301804AD
:10087000DB4300F4000003F08003A8E706233B609D
:10088000A8E7637843F001036370A3E700380240F0
:100890000038014058220020542200204822002025
:1008A00044220020003C014000E100E050220020F2
:1008B000000802404C2200200004024030B570B114
:1008C000CC6864B18A6852B10B6943B10D6849685C
:1008D0008560C1608361C0E90424002030BD4FF011
:1008E000FF30FBE773B50023456804460193A5B9C3
:1008F000836803B19847202300262360636901AA17
:10090000122128469847002809DB019B03F01F03AA
:10091000AB4206D1256001236360002609E06FF039
:1009200004060135202DE9D123681F2B04D8002EA1
:10093000F1D0304602B070BD6FF00206F9E737B56E
:1009400000254369044601AA0121006801959847E2
:10095000A84203DA6FF0040003B030BD636901AA56
:100960000121206898470028F4DB019B5B072CD508
:10097000636901AA2946206898470028EADB019BA1
:10098000DD040ED403F40452B2F5045F01D1022059
:10099000E2E7980401D50320DEE7D90513D405204A
:1009A000DAE7636901AA1F21206898470028D1DB94
:1009B000019BDA040BD503F01C03182BE7D0082B9E
:1009C000E9D0142BEBD10420C6E70120C4E70620B0
:1009D000C2E770472DE9F0412A4E3468202C4CD1F3
:1009E00000294CD0002A4AD021243460046814F431
:1009F000805406D0056815F480650ABF0C460024B3
:100A0000294600254FF0E02C02F1FF3E1F46D0F8AA
:100A10001C8018F0800F16D0AE4501D14027076228
:100A200001BB34F8027BC7F3080701358762AFB218
:100A3000BA42EBD84FF0E021C269520615D5202307
:100A4000002033600AE0DCF8108018F4803FDED02C
:100A500007F1FF3827B9202303203360BDE8F08178
:100A60004746D4E711F8017BDFE70A69D403E3D5F1
:100A70005A1E002BEFD01346DEE70220EEE70120DE
:100A8000ECE700BF7022002010B514464FF6FF734C
:100A900092B20248FFF79EFF204610BD004400407E
:100AA0002DE9F341844920220B6B43F008030B63CB
:100AB0000B6B03F008030193019B804B1E6892FAB5
:100AC000A2F5B5FA85F592FAA2F403206D00B4FA06
:100AD00084F400FA05F5640026EA0505022606FA04
:100AE00004F42C431C601F6A92FAA2F5B5FA85F54E
:100AF00092FAA2F44FF00F0CB540B4FA84F40CFA59
:100B000005F5B44027EA0505072707FA04F42C4346
:100B10001C62D3F808E092FAA2F5B5FA85F592FACC
:100B2000A2F4B4FA84F46D00640000FA05F506FA44
:100B300004F42EEA05052C439C605C6824F0200434
:100B40005C60DD6892FAA2F4B4FA84F492FAA2F23C
:100B50006400B2FA82F200FA04F4520025EA0404B6
:100B6000012505FA02F22243DA604022D3F8008020
:100B700092FAA2FEBEFA8EFE92FAA2F40EFA05FED8
:100B8000B4FA84F400FA0EFEAC4028EA0E0806FA25
:100B900004F448EA04041C601C6A92FAA2F8B8FA49
:100BA00088F892FAA2FE08FA06F8BEFA8EFE0CFA4F
:100BB00008FC24EA0C0C0EFA06F4A7404CEA0707DE
:100BC0001F629F6892FAA2F4B4FA84F492FAA2FC2B
:100BD000AC40BCFA8CFC00FA04F427EA04040CFADA
:100BE00005F7BE4034439C605C6824F040045C60C0
:100BF000DC6892FAA2F6B6FA86F692FAA2F2AE4053
:100C0000B2FA82F2B040AA4024EA000095404FF0C8
:100C100040220543DD600B6C43F400330B640B6C26
:100C200003F400330093009BD1F8903023F00C03C1
:100C3000C1F8903002F5806353E8003F43F00C03A5
:100C400002F5806040E800310029F3D11C4C4FF4DC
:100C5000E1321C492368204623F0805323F4B0532B
:100C60002360636823F440536360174B1B689B0841
:100C700003F56143B3FBF2F3E3608022236843F0A2
:100C800001032360114B83F8262340225A6020235E
:100C90000F4A13600F4A136040F2FF131D22FFF743
:100CA00099FE40F2FF1388220B49204602B0BDE8AE
:100CB000F041FFF78FBE00BF00380240000C024039
:100CC000004400408E6A01081400002000E100E0AA
:100CD000702200206C220020CD90010808470000FF
:100CE000C26940F60F030168134070B49606856828
:100CF00049D58C0647D503685B4A13F4805F5B4B8C
:100D000014685B4A128834D00168490531D4456AB9
:100D100019682A4024F811201A6802321A601B68E8
:100D2000C3F34F03534A12889A4240F098800368F5
:100D3000202223F490730360836823F0010383600F
:100D40004D4B1A6043681A0203D5036823F0806391
:100D50000360036823F010030360C369DB0601D559
:100D6000102303620120454B4549187070BCFFF702
:100D7000B5BF416A1D680A4062551A6801321A609F
:100D80001B689BB2CEE7002B4ED03E4B05F0010412
:100D90000B40234348D012F0010304D011F48076B5
:100DA0003ED001260662960703D514B102263343CE
:100DB0000662560703D514B10426334306621607AC
:100DC00006D501F02006264302D0082423430462FE
:100DD000160527D54C0125D54FF400642343046242
:100DE000294E8468336023F4FE6304F0400423F04A
:100DF00007031B051B0D1C4333D00368202423F479
:100E000098730360836823F0010383601A4B1C60AE
:100E100083685B0608D5836823F04003836003E0A2
:100E20003346C0E7002BDBD1D60604D5CC0602D56D
:100E3000102303628368D30204D56E0202D54FF4F7
:100E400080130362150601D50C0608D4520606D598
:100E50004B0604D54023202203600C4B1A6070BC63
:100E600070473460E0E700BF642200205C2200206D
:100E700060220020622200206C2200205B220020E1
:100E8000D3090008200100046822002070220020FD
:100E9000704700207047000030B58DB00C463022FE
:100EA0000021684615F064F86A4623460021D3B94C
:100EB000164D204623896C63154C6B60C5F808D02D
:100EC0000BF0D2FC2946134801F095FB4FF0FF319F
:100ED000206807F0DAFB0128F8D10E4801F02DFC5C
:100EE00000200DB030BD04290CD05868106058891E
:100EF000506009B142F8042C1B6803B993600131BA
:100F00000C32D4E76FF00B00EBE700BF9422002017
:100F10007C230020CC220020104D114C08B52B68FA
:100F2000D3F8C4211AB1002007F098FEF7E7D3F8F0
:100F300094210A2A0ED9626822F400026260626873
:100F400042F400026260D3F8002142F00102C3F8CB
:100F50000021E4E7C82008F08FF8E0E7CC22002069
:100F600000380140024808B501F044FD002008BDEA
:100F7000CC22002008B513460A460146034801F07A
:100F80007BFC003818BF0120404208BDCC22002065
:100F900008B513460A460146034801F094FC0038A0
:100FA00018BF0120404208BDCC22002000F010BF35
:100FB0000146094810B50BF0FDF8084A1378012BDB
:100FC00009D100230648137019461A460068BDE887
:100FD000104007F0E9B810BDD49201088423002026
:100FE000802300202DE9F7430446114EDFF84480AA
:100FF000DFF844904FF0FF31306807F046FB0128DE
:10100000F8D1002798F8003001971BB901A948468C
:1010100001F01FFB019D002DECD0236921462846DD
:1010200098470028EED028460BF0D2FAEAE700BF36
:101030008023002084230020CC22002070B50446A9
:101040009EB030B9594B4FF4D5725949594814F0F4
:101050001DFE47F273436422002105A8E3850025A5
:10106000554B6361554BA36114F082FF0223544832
:101070000393544BADF81050036003AB43604FF43F
:1010800000038360504B0361504BC3604FF4BF6358
:10109000436101F02FF94E4B4E48C4E90935062350
:1010A00084F82C3094F82D3043F00A0384F82D3066
:1010B0000BF03CF8484B29463422184614F058FFF0
:1010C0002122294640F8042C4FF4400202610322F9
:1010D000012007F03DF8414B29460322186001200A
:1010E00007F036F83E4B4FF400723E491860032378
:1010F0000195009323463C4807F0C6FC3B493C4819
:10110000FFF7DCFB3A48FFF7EDFB054690B12046C0
:1011100005350BF08FF920460BF069F93548EDB233
:1011200014F0B4FD344800EB451014F0AFFD00207E
:101130001EB070BD2E48FFF702FC012814DC2046CB
:101140000BF078F920460BF052F900F059FEB0F59B
:10115000805FECD10322002328492948CDE90023F0
:10116000802207F091FCE2E7033805A9022893BF2B
:10117000244B4FF480454FF4006633F810609CBF59
:10118000214B33F810500E4801F0C1FB05A90C4863
:10119000CDE90A5601F021FC094801F0A7F92046E3
:1011A0000BF018F920460BF030F9CEE7AC6A0108D5
:1011B000C56A0108D36A0108650B0108990E000889
:1011C000CC2200200080024088210020E82000205E
:1011D000DC050200D4920108982200208023002020
:1011E0007C230020FB6A0108E50F000800000020B6
:1011F00074220020016B010872910108286B01081C
:10120000190F00086C9101086691010830B5364C41
:101210008DB00025354807A90995236B43F00103DC
:101220002363236B03F001030093009B236B43F0C4
:1012300002032363236B03F002030193019B236BDF
:1012400043F004032363236B03F004030293029B24
:10125000236B43F040032363236B03F040030393AA
:10126000039B03230A93022308930B230B938623E8
:10127000079301F0EDFB4FF4005307A91C480793B7
:1012800001F0E6FB322307A91A48079301F0E0FBBF
:101290004FF4205307A91848079301F0D9FB2A46B9
:1012A00007213D2000F0C4FD3D2000F0F3FD236B3D
:1012B00043F000732363236B03F000730493049BD8
:1012C000236B43F080632363236B03F080630593F8
:1012D000059B236B43F000632363236B03F00063E0
:1012E0000693069B0DB030BD00380240000002405E
:1012F000000402400008024000180240002307B525
:10130000019301A9094B186807F0B1F8019B4BB193
:101310004FF0E0234FF08052C3F8042DBFF34F8FFE
:10132000BFF36F8F03B05DF804FB00BF8023002084
:10133000002307B5019301A9094B186807F097F836
:10134000019B4BB14FF0E0234FF08052C3F8042DC6
:10135000BFF34F8FBFF36F8F03B05DF804FB00BF87
:101360007C23002007B501F06FFB030612D5002394
:1013700001A90193094B186807F079F8019B4BB15B
:101380004FF0E0234FF08052C3F8042DBFF34F8F8E
:10139000BFF36F8F03B05DF804FB00BF8023002014
:1013A0002DE9F04F4FF000099BB0DFF8E4A00546AF
:1013B000C8464F464E46DFF8DCB06422002101A843
:1013C00014F0D6FD2948FFF7BAFA8145044608D043
:1013D000504614F05BFC601D80B20BEB401014F023
:1013E00055FC95F82D305A0718D5012C14DC2048EF
:1013F00001F0BCF800221F49284609F0D1FE002266
:101400001D49284609F0CCFE1C4814F0A7FC6420B6
:10141000A14607F031FED5E75B07F8D4012CF6DDD5
:10142000A31E032B1ED8164A32F81370154A32F841
:10143000138001A90E4801F06AFA01A90C4801269F
:10144000CDE9067801F0C9FA094801F04FF8002209
:101450000D49284609F0A4FE00220C49284609F04F
:101460009FFED4E7002ED2D0E3E700BF7422002015
:10147000CC220020EFC3000835C40008516B0108DE
:101480005E91010856910108D5C300080BC40008FD
:10149000366B01087291010813B504460C480AF036
:1014A00067FE034678B100F114020A492260016127
:1014B0004FF4BF61CDE900210021412208460BF025
:1014C0003FF802B010BD044A012120601170F8E716
:1014D000D4920108B10F00088423002030B5002504
:1014E000A2F1140422F80A3C42F8145C22F80C5CC5
:1014F000026822B904600C6002681AB930BD0A683B
:101500001460F8E71189194411811268F5E70BF0AE
:101510005FB800000022102070B5114686B008F0B8
:1015200077FC05465022254908F0E0FC002D42D00A
:10153000FF21284608F0F4FC03A9284608F07CFDAA
:101540000028F9D1039E04A9304608F067FE04463E
:1015500038BB0DF10A0205A9049809F002FEBDF896
:101560000A30042B1DD9059B1A78472A19D15A78BD
:10157000452A16D19A78542A13D1DA78202A10D124
:101580001B792F2B0DD123462C220D493046009478
:1015900008F034FD2346A3220A493046009408F09F
:1015A0002DFD304608F036FD049809F0C9FD03987A
:1015B00008F08EFCC0E706B070BD00BF60FA0808F6
:1015C00084930108E0920108012307B500220093EB
:1015D00004494FF48063044810F0C6FC03B05DF882
:1015E00004FB00BF15150008686B01082DE9F041E8
:1015F000DDF828800C46BDF81C500698DDE9086728
:101600000FF036FE2B460246214606960348CDE9EA
:101610000778BDE8F04114F039BB00BF7C6B0108CE
:10162000002101480AF072BAED150008054B82B09E
:101630001A6B02431A631B6B03400193019B02B0B8
:10164000704700BF003802400021002400B5084662
:1016500089B009F077FE174A6FF07F4305A9164855
:101660000094CDE9052303F5284306AAC133079367
:10167000124B0293124B019307AB0AF027FE0E4860
:101680000AF0A2FE0F490C480AF0E1FE0A48FFF7F3
:10169000FFFB094B4FF480720B490C48CDE9004425
:1016A00007F0F2F9FFF790FFFFF7BAFF002007F00D
:1016B000D5FAFBE7C0A8000A58600020E5B2000890
:1016C0003D100008910E0008D76B0108A113000817
:1016D000354A136823F00F0343F0070310B5136076
:1016E000136803F00F03072BFAD1304B1A6842F44A
:1016F00040421A601A6842F480321A6003F5E433FB
:101700001A6822F0F80242F080021A601A6842F069
:1017100001021A601A689007FCD55968244A0A40E9
:10172000244942F4585242F008025A605A68114063
:10173000214A0A435A601A6842F080721A601F4BAD
:101740001A689101FCD519494A685204FCD59A6877
:101750001A4C22F0F0029A609A6822F4E05242F4A5
:10176000A0529A609A6822F4604242F400429A6061
:101770009A6822F0030242F002029A60A36803F022
:101780000C03082BFAD10E4801F0BEFE0F2000F02A
:10179000FDF908B172B6FEE7D4F88C3023F08073FF
:1017A000C4F88C3010BD00BF003C02400070004007
:1017B0000080BCFF0080BFF00836000900380240FE
:1017C00000E6DF0C38B50C4D0220FFF72FFF012299
:1017D0002B6892FAA2F0B0FA80F092FAA2F10324F8
:1017E0009040B1FA81F104FA00F0914023EA00033D
:1017F0008A4013432B6038BD000402402DE9804825
:1018000091B0002400F054FB012340F2011509A817
:10181000ADF8243048F21F730C95CDE90A4300F06F
:1018200065FBB74AB74B09A8ADF824500C94CDE935
:101830000A2300F05BFB40F20123B34909A8ADF88D
:101840002430B24BCDE90A134FF001230C9300F082
:101850004DFB042000F03AFBBFF34F8FBFF36F8FB7
:10186000AB4AC2F85042BFF34F8FBFF36F8F53693B
:1018700043F400335361BFF34F8FBFF36F8FC2F850
:101880008440BFF34F8FD2F8803043F6E074C3F347
:10189000C900C3F34E335B0103EA0406014646EA7E
:1018A00081750139C2F86052F9D2203B13F1200F43
:1018B000F2D1BFF34F8F536943F480335361BFF3C9
:1018C0004F8FBFF36F8F002400F06BFAFFF700FF1C
:1018D0001822214609A88DF8134014F049FB042072
:1018E0008C4DFFF7A3FE8020FFF7A0FE0120FFF73D
:1018F0009DFE0220FFF79AFE0820FFF797FE40208A
:10190000FFF794FE4FF48033DFF83492AB614FF071
:1019100080438149AB614FF48003C9F818304FF41C
:101920000003AB61F0234A6993FAA3F34FF0020876
:10193000B3FA83F322F0F002012608FA03F34FF41E
:10194000005A03A813434B61CDF80CA0ADF810600A
:101950008DF8126001F004FB704AD1689AFAAAF37C
:10196000B3FA83F30327B34007FA03F321EA03032F
:101970009AFAAAF1D36011689AFAAAF3B3FA83F338
:10198000B34007FA03F321EA03039AFAAAFA1360B1
:1019900009A928460D944FF0400B4FF0800ACDE97D
:1019A0000966CDE90B4401F02FFB4FF4804309A9F0
:1019B00028460D94CDE90936CDE90B4401F024FB0E
:1019C00009A948460D94CDE909B6CDE90B4401F0CB
:1019D0001BFB09A948460D944FF00709CDE909A45E
:1019E00001F012FB202309A94D480D94CDF8389041
:1019F000CDE90938CDE90B7401F006FB09A9484887
:101A0000CDE909B8CDE90B74CDE90D4901F0FCFA37
:101A100009A928460D94CDE909A6CDE90B4401F0AA
:101A2000F3FAC5F818A0FFF7CDFE1C22214609A83D
:101A300014F09EFA3B4B082003A9D3F89020A5F59B
:101A4000DE3522F03002C3F890201A6C42F4802276
:101A50001A641B6C03F480230293029BFFF7E6FDDC
:101A60004FF480732E48CDE90338CDE90574CDE9F4
:101A7000074901F0C9FA4FF4007303A92848CDE9DA
:101A80000338CDE90574CDE9074901F0BDFA4FF4FB
:101A9000E13309A928460F94CDE909340C23CDE997
:101AA0000B44CDE90D3401F0B1FC6B6823F4904395
:101AB0006B60AB6823F02A03AB602B6833432B6069
:101AC00002F00AFD10F06EFC2346524616491748F4
:101AD000CDE9004406F0D8FF234652461449154884
:101AE000CDE9004406F0D0FF23464FF4207212499E
:101AF0001248CDE9004406F0C7FF07F00FF9FEE7F2
:101B0000008007200D00010300C007200D00000326
:101B100000ED00E0000402400038014000080240EF
:101B2000000C024000380240DF6B0108510600083B
:101B3000EA6B01081D060008F86B01084916000849
:101B400000180240704770470268034B9A4201D167
:101B500000F032B9704700BF001400400A4B82B059
:101B60001A6C42F080521A641A6C02F08052009291
:101B7000009A5A6C42F480425A645B6C03F48043CE
:101B80000193019B02B0704700380240214B1A6C50
:101B900042F0200270B588B01A641B6C054601A99A
:101BA00003A803F020030293029B01F04BF8069B6D
:101BB0004BBB01F037F8184E184B336040F2E73357
:101BC000F360174BB0FBF3F3013B30467360002327
:101BD0003361B360B36101F08FF9044680B93046D8
:101BE00001F050F8044658B9372000F053F90F2D92
:101BF0000DD822462946372000F01AF9094B1D60FE
:101C0000204608B070BD01F00DF84000D3E7012474
:101C1000F6E700BF003802408C600020001400404E
:101C200040420F001C000020FEE7FEE7FEE7000038
:101C30000148FFF755B800BF00440040FEE7FEE74B
:101C400070470000014801F05FB800BF8C600020C1
:101C5000044B5A69920404D54FF400525A61FFF7BD
:101C600071BF7047003C0140094B5A68900206D58D
:101C70004FF40012DA604FF48012DA6007E05A681D
:101C8000110301D5FFF75FBF5A68D202F3D4704742
:101C900000600240064B5A68120503D54FF40062FB
:101CA000DA6070475B689B0501D5FFF74CBF704752
:101CB00000600240014800F071BD00BFCC2200204E
:101CC000704770470120704708B514F0BDF916231E
:101CD00003604FF0FF3008BD08B514F0B5F91623C6
:101CE0000360FEE74FF0FF3070474FF400530020D1
:101CF0004B60704701207047002070470B4A034635
:101D0000116810B509B90A491160106809490A4CEF
:101D10000344091B8B4206D914F096F90C23036087
:101D20004FF0FF3010BD1360FCE700BFD86000200B
:101D3000F01801200000082000040000034AD2F837
:101D4000883043F47003C2F88830704700ED00E03B
:101D5000DFF834D0FFF7F2FF0C480D490D4A00239D
:101D600002E0D458C4500433C4188C42F9D30A4A50
:101D70000A4C002301E013600432A242FBD314F0AA
:101D800069F9FFF73BFD70470000082000000020C4
:101D9000E820002080FB080828220020F0180120FD
:101DA000FEE708B5032000F031F80F20FFF7EEFE44
:101DB000FFF7D4FE002008BD034A044B11681B78CE
:101DC0000B441360704700BFDC6000201800002047
:101DD000014B1868704700BFDC60002038B504462E
:101DE000FFF7F6FF0546631C1EBF044B1B78E41883
:101DF000FFF7EEFF431BA342FAD338BD18000020C3
:101E0000014B1868000C7047002004E007490302EA
:101E1000CA6803F4E06322F4E0621204120C134374
:101E200043F0BF6343F40033CB60704700ED00E044
:101E3000164B30B5DC68C4F30224C4F10703251D3A
:101E4000042B28BF0423062D4FF0FF358CBF033C25
:101E5000002405FA03F3002805FA04F521EA030338
:101E600022EA050203FA04F343EA02034FEA0313EA
:101E7000DBB206DB00F1604000F5614080F8003322
:101E800030BD00F00F00024A1354F9E700ED00E006
:101E900014ED00E0002807DB4109012300F01F00DA
:101EA000024A834042F82130704700BF00E100E061
:101EB000BFF35F8F044B5A6A22F480325A620022C9
:101EC000C3F89420704700BF00ED00E0064B40F0DF
:101ED0000100C3F894005A6A42F480325A62BFF398
:101EE0004F8FBFF36F8F704700ED00E04378144AC7
:101EF000C2F89830D2F8A03023F00103C2F8A03025
:101F00004368C2F89C30C37A017B1B0643EA017325
:101F100001780B43817A43EAC143417B43EA814321
:101F2000817B43EA4143C17B43EA0143417A43EA6F
:101F30000123017A43EA4103C2F8A030704700BF91
:101F400000ED00E02DE9F043856A91468C6800EBD6
:101F50008506B3691F68002F02DA0220BDE8F0830E
:101F6000F76A002FF9D1276862689F605F68D1F82F
:101F700000C06FF30C071CF0010F47EA02075F6017
:101F800005D01F684A6927F4400717431F601CF0FB
:101F9000200F05D01F68096927F040673943196091
:101FA0001CF0040F03D0196841F080011960196812
:101FB0000027DFF8F08041F0805119602946A468BD
:101FC00007F1010E1CBB1A68B9F1000F66D042F090
:101FD00080421A601A6842F000521A60B269BFF378
:101FE0005F8F136843F00043136000EB8103C26B03
:101FF000DA628162EFF31082012383F31088036CAD
:1020000001333B44036482F310880020A6E71F6875
:1020100027F000571F601F68B9F1000F23D047F069
:10202000804701F1010C1F60BCF1030F88BFA1F1D3
:10203000030C00EB8C018B691F68002F16DAB16965
:102040000022724589D0BFF35F8F0B68013223F005
:1020500000430B606B1C032B88BFEB1E00EB83015E
:102060001D468969EDE727F08047DAE7C96A00294C
:10207000E5D11968676821F080511960216899607D
:10208000596801EA080139435960BFF35F8F196845
:10209000774641F000411960614690E722F08042A6
:1020A00097E700BF00E0FFFF70B50D4602680446E9
:1020B000AB68686911680343A8690343686A03430E
:1020C000A87B43EA4063E87F43EA0043287F43EA72
:1020D0000033287943EA8023E87B43EAC01395F86C
:1020E000280043EA00132A480840297CB1FA81F10C
:1020F00003430120490943EAC153697CB1FA81F1E4
:10210000490943EA8153A97FB1FA81F1490943EAB8
:10211000413395F82010B1FA81F1490943EA41238E
:1021200013601668FFF75AFE2168A86C0E608A6972
:102130002B6D22F0BE0243EA00431204120C13433B
:1021400095F84C20B2FA82F2520943EAC21395F88C
:102150005520501E42424241012043EAC20395F8F5
:102160005620561E7242724143EA820395F854206B
:1021700002F1FF3CDCF1000242EB0C0243EA4203B5
:102180008B618D69FFF72AFE23689D6170BD00BFDA
:102190000F8120FD70B54B690D46096A044602683F
:1021A0000B43697B02F5805243EA4163A97B906946
:1021B00043EA4153297F43EAC113A97F43EA8113CC
:1021C00095F8241043EA81031A49014001200B438A
:1021D000297BB1FA81F1490943EA8163697FB1FA48
:1021E00081F1490943EA015393619669FFF7F6FDCE
:1021F00022680120A96902F58052AB6896610B4301
:1022000095F8251043EAC11329690B4329680B434C
:10221000A96A43EA8103297943EA416343F400034D
:1022200013601568FFF7DAFD236803F580531D601E
:1022300070BD00BF233FDEF8002313B501930446B1
:102240000368012003F580539A6942F480129A6171
:102250009B690193FFF7C2FD2368019A03F5805340
:102260009A6102B010BD00002DE9F3410023866E93
:102270000446C76E019306F11203DFF8748050F82C
:10228000235037B12B6ADBB901A8FFF705F9019B91
:10229000A3B9E36EBB420ED0BFF35F8F711C2368FE
:1022A0002269282001F0030103F5805300FB01227D
:1022B0009A60C4E91A6702B0BDE8F0812B62AB6096
:1022C000A26D63698AB943EA08036B60013F2B681A
:1022D00043F000432B60731C032B88BFF31E03F1F4
:1022E00012021E4654F82250CBE743F48043ECE739
:1022F00000400080F0B50446A7B0002800F0E88058
:10230000D0F8843023B92323C0F88430FEF77EFF51
:10231000734BA1685A6C42F480425A645B6C03F4BC
:1023200080430193019B6F4B5A6822F400025A606C
:102330005A680A435A605B68236803F580531A6839
:1023400042F001021A60FFF743FD0646236803F5D9
:1023500080531D6815F0010540F0AD8001264FF453
:10236000804240F201174FF400630DA920468DF81A
:102370003860ADF85260ADF842600F958DF850505E
:102380008DF85450ADF8447016958DF85C501F953B
:102390008DF880502195ADF888508DF88A50CDE9A0
:1023A0001223FFF781FE4FF48033204602A90493E5
:1023B0004FF400538DF80C608DF81660ADF8147072
:1023C0008DF826500A95ADF82C700C950295CDE944
:1023D00006354FF4800308934FF48073ADF8243032
:1023E000FFF7D8FEE66804F1140C2A462846334667
:1023F000186019465860032A9860D8604CF8043F6A
:102400001F6847F4801741F8287B64D0D9601F68A3
:10241000013247F44007042A1F600B46E8D12268C6
:10242000002104F1440C4FF0004E02F58057A162E8
:102430003E61266933461960032D59609960D96061
:10244000C3F800E0C3E90811606940F480405860B7
:10245000586820F00040586003F128004CF8043F11
:102460003BD0D86001350346042DE4D161680020DB
:102470001D4BA065C4E91700C4E91A00FE608D88F1
:102480001D6409685964D36B43F40273D363D2F8B3
:102490000C3143F4003343F06003C2F80C31D2F83E
:1024A000103143F40313C2F810311023C4F888002C
:1024B000C4F884300DE0FFF78BFC801BB0F5FA7F89
:1024C0007FF644AF0423C4F88830E023C4F8843096
:1024D000012027B0F0BDDE6099E7DE60C2E700BFF3
:1024E000003802400038014000800240F8B5D0F8C2
:1024F000843004460125102B36D10423232685651C
:10250000C366C0F88460FFF7AFFE236828461F68E3
:10251000FFF764FC236820461F6003F580539A6927
:1025200042F400529A619A6942F002029A61FFF7FE
:1025300083FE236828461A6842F008021A601F6862
:10254000FFF74CFC236800201F601A6842F0040269
:102550001A6003F58053DA6942F4D03242F0C102C6
:10256000DA61C4F88460F8BD2846FCE738B5D0F8D5
:1025700084300446232B3CD10168C0F8843001200C
:1025800001F58053DA6922F4D03222F0C102DA6117
:102590009A6922F400529A619A6922F002029A61C1
:1025A0000B6823F004030B600D68FFF717FC23682A
:1025B00020461D60FFF740FE236801201A6822F0C4
:1025C00008021A601D68FFF709FC234604F1540055
:1025D00053F8442B156053F8041F4A68834242F0B5
:1025E00000424A60F7D100201023A065C4F884306F
:1025F00038BD0120FCE710B5044639B9D0F8883061
:1026000043F00103C4F88830012010BDD0F88420C5
:10261000232AF9D14B6B0122C363FFF793FC20B14E
:10262000D4F8883043F00203ECE7BFF34F8FA26A7F
:10263000531C032B88BFD31EA362236803F580536A
:102640005A69520703D504225A6100225A600020B9
:10265000DBE72DE9F04F044685B0894649B9D0F84B
:10266000883043F00103C0F88830012005B0BDE890
:10267000F08FD0F88430232BF7D1D0F85C8000277E
:1026800000F1800108F112033E46BB4650F823508A
:102690007C3050F8103CC3F1040A2B68002B02DB9D
:1026A000564500D087B1E36E1E44E66616B120465B
:1026B000FFF7DAFDC4F85C80002FD6D0E36F00206E
:1026C000C9F80030E067D1E72B68DB0503D5EB697B
:1026D000A367AB6963672B689A0501D4E36FFBB10D
:1026E0002B689B052B682A68C3F30D4348BFC4E9D8
:1026F00018BBD20502D52A6801272267AA68019073
:102700002A62CDE90213FEF7E9FE226E039B013235
:102710002266626EDDE901011A446266C5F820B0E6
:1027200008F101030136032B88BFA8F1030303F16D
:102730001202984654F82250AFE72DE9F0470546BB
:1027400001274FF028094FF0000AD0E9106406B1C4
:1027500017B90020BDE8F08705EB8408013ED8F8E2
:102760002C0028B9631C032B00D9E31E1C46EEE79E
:1027700009FB04F3EA68D358002B0ADBFEF7C7FE17
:10278000631CC8F82CA0032B88BFE31EC5E91063A7
:10279000ECE723460027E9E7704770470368344AAF
:1027A0002DE9F0419F6B03F5805304465D69D3F832
:1027B0001C8056696A0606D518F0400F03D02D4AD2
:1027C0005A61FEF79BFDE8070BD518F0010F08D002
:1027D00023684FF00112204603F580535A61FEF73B
:1027E000A7FD290423D518F4004F20D0D4F8883051
:1027F00015F4005F43F00803C4F88830236803F53C
:1028000080535A692CD022F07F4222F4010222F434
:102810005F4222F0FF02C4F88C20DA6922F4C03251
:10282000DA61E023C4F884302046FEF79BFD3A07C6
:102830000BD523682046DB6A03F06003C4F89430AC
:10284000FFF7AAFF0023C4F89430330306D5084BE2
:102850004FF4002220465A61FFF79FFFBDE8F08148
:1028600048F280610A40C4F88C205961DCE700BF5F
:10287000003C014040000100F8B5054600681E46D6
:1028800092010369CC0202F4F86203F01C03A4B2C3
:102890001A43144344F001040461FFF799FA074610
:1028A00014F0010004D12B685B699BB23360F8BD62
:1028B000FFF78EFAC01BB0F5803F02D22B681C696F
:1028C000EEE70120F3E770B5054600689201046960
:1028D0009BB202F4F86204F01C0443612243CC0270
:1028E000A4B2144344F003040461FFF771FA0646EE
:1028F00014F0010000D170BDFFF76AFA801BB0F53B
:10290000803F02D22B681C69F2E70120F3E700291F
:1029100061D0036800201A68C2F3001281F82820F1
:102920001A6802F060024A621A6882F40072C2F306
:10293000402281F820201A68C2F30042CA771A6840
:1029400082F40052C2F340328A771A68C2F300322E
:102950000A771A6802F400628A611A6802F48042F7
:102960004A611A6882F48002C2F380524A741A687B
:1029700082F40002C2F3C0520A741A68C2F3C01291
:10298000CA731A6802F460228A601A68C2F380224D
:102990000A711A68C2F340628A739A69C2F34002EC
:1029A00081F854209A6982F08002C2F3C01281F843
:1029B0004C209A6902F030020A659A69120C8A6406
:1029C0009A69C2F3800281F856209B69C3F3C00361
:1029D00081F8553070470120704708B539B1D0F8FB
:1029E0008430102B03D1FFF75FFB002008BD0120CE
:1029F000FCE7000038B5036805461C6900F00CF9D7
:102A00000D4B24F01C04984204D844F008042B68B1
:102A10001C6138BD094B984202D244F00C04F6E721
:102A2000074B9842F3D9074B984294BF44F00404F3
:102A300044F01004EBE700BFBF0E160200879303BB
:102A4000FFE0F5057FD1F008D0F88C00704700005A
:102A50002DE9F74F0023DFF8BC916C4A01240D6883
:102A60009C4004EA0506AC4340F0B7804D6803275C
:102A70004FEA430E05F0030407FA0EFC671E6FEAE7
:102A80000C0C012F34D8876807EA0C08CF6807FAC6
:102A90000EF747EA08078760476827EA0608C5F384
:102AA00000179F4047EA08074760C768022C07EAFB
:102AB0000C088F6807FA0EF747EA0807C76019D1B4
:102AC0004FEAD30803F0070A4FF00F0B00EB88081A
:102AD0004FEA8A0AD8F820700BFA0AFB27EA0B0B98
:102AE0000F6907FA0AF747EA0B07C8F8207001E0F8
:102AF000032CDAD1076804FA0EF415F4403F07EA14
:102B00000C0744EA0704046067D0D9F8444023F076
:102B1000030703F0030C4FF00F0E44F4804407F159
:102B200080474FEA8C0CC9F8444007F59C37D9F828
:102B300044400EFA0CFE04F480440194019CBC68ED
:102B400024EA0E0E324CA0424ED004F58064A0421E
:102B50004CD004F58064A0424AD004F58064A042C1
:102B600048D004F58064A04246D004F58064A042B9
:102B700044D004F58064A04242D004F58064A042B1
:102B800040D004F58064A0423ED004F58064A042A9
:102B900014BF0A24092404FA0CF415F4801F44EA33
:102BA0000E04BC606FEA060794680CBF3C403443D7
:102BB00015F4001F9460D4680CBF3C40344315F4F6
:102BC000003FD46054680CBF3C403443ED03546074
:102BD000146854BF3C40344314600133102B7FF41D
:102BE0003DAF03B0BDE8F08F0024D4E70124D2E765
:102BF0000224D0E70324CEE70424CCE70524CAE767
:102C00000624C8E70724C6E70824C4E7003C0140BF
:102C10000000024000380240014B1868704700BFB6
:102C200014000020044B054A9B68C3F38223D35C45
:102C3000034A1068D840704700380240B193010839
:102C4000140000200F2303600B4B9A6802F003026C
:102C500042609A6802F0F00282609A6802F4E052E0
:102C6000C2609B68DB0803F4E0530361034B1B68FD
:102C700003F00F030B60704700380240003C024035
:102C80007047000090F83D30012B33D1022380F8CB
:102C90003D300368DA6842F00102DA60164A934276
:102CA0001AD0B3F1804F17D0A2F57C42934213D0D3
:102CB00002F5806293420FD002F5806293420BD0FE
:102CC00002F57842934207D002F57052934203D046
:102CD000A2F59432934207D19968084A0A40062A1D
:102CE00006D0B2F5803F03D01A6842F001021A60A4
:102CF00000207047012070470000014007000100DC
:102D00007047704770477047036870B5DD680446C8
:102D10001E69B2070DD5A9070BD56FF002021A6123
:102D2000012202779B699A0775D0FFF7EAFF00231B
:102D30002377730710D568070ED523686FF0040258
:102D400020461A61022222779B6913F4407F68D0E3
:102D5000FFF7D7FF0023237731070FD52A070DD5BB
:102D600023686FF0080220461A6104222277DB698B
:102D70009B075CD0FFF7C5FF00232377F10610D532
:102D8000EA060ED523686FF0100220461A61082269
:102D90002277DB6913F4407F4FD0FFF7B2FF0023A7
:102DA0002377F30708D5E80706D523686FF00102FB
:102DB00020461A61FEF7C8FE16F4025F08D0290605
:102DC00006D523686FF4025220461A6100F0C5F858
:102DD000F20508D52B0606D523686FF480722046CD
:102DE0001A6100F0BBF8700608D5690606D523689D
:102DF0006FF0400220461A61FFF785FFB20622D528
:102E0000AB0620D523686FF0200220461A61BDE88A
:102E1000704000F0A1B8FFF773FF2046FFF772FF84
:102E200085E7FFF76DFF2046FFF76CFF92E7FFF79E
:102E300067FF2046FFF766FF9EE7FFF761FF20462A
:102E4000FFF760FFABE770BD294A0368904212D0DC
:102E5000B0F1804F0FD0A2F57C4290420BD002F52A
:102E60008062904207D002F58062904203D002F562
:102E70007842904208D123F070034A68134323F448
:102E80004073CA68134316E01A4A9042F7D002F51D
:102E900080629042F3D002F580629042EFD0A2F5BA
:102EA00098329042EBD002F580629042E7D002F572
:102EB00080629042E3D04A6923F0800313430360A9
:102EC0008B68C3620B688362094B984203D003F599
:102ED0008063984201D10B69036301234361036955
:102EE000DB0703D5036923F001030361704700BFCB
:102EF000000001400040014010B5044650B390F876
:102F00003D3003F0FF021BB980F83C20FFF7B8FE0C
:102F100002232068211D84F83D30FFF795FF01232F
:102F2000002084F8483084F83E3084F83F3084F83C
:102F3000403084F8413084F8423084F8433084F8DB
:102F4000443084F8453084F8463084F8473084F8BB
:102F50003D3010BD0120FCE770477047704700000E
:102F600001790246036800293FD00BB90020704761
:102F7000417901291DD0022924D039BB2149486853
:102F800020EA03004860086818430860002092792E
:102F9000002A35D0022A1BD0032A22D0012A2ED1A2
:102FA000184AD16821EA0301D16091680B4393600C
:102FB00070471449086820EA03000860486818430D
:102FC0004860E3E70F4908681843F6E70120DEE7A9
:102FD0000C4A916821EA03019160D1680B43D360E8
:102FE0007047084A91681943F6E7064A116821EAD2
:102FF00003011160516821EA03035360B6E7012021
:10300000704700BF003C01402DE9F04F02460D68BB
:1030100095FAA5F44FF0010CB4FA84F403266FEA94
:10302000050E35FA04F001D1BDE8F08F0CFA04F377
:103030002B406FD04868471E012F1ED8D2F8088059
:1030400093FAA3F7B7FA87F793FAA3F97F00B9FACF
:1030500089F906FA07F74FEA490928EA07088F684D
:1030600007FA09F748EA0707976057680EEA070862
:10307000CF686F4348EA07075760D2F80C8093FA8D
:10308000A3F7B7FA87F793FAA3F97F00B9FA89F99A
:10309000022806FA07F74FEA490928EA07080F69E4
:1030A00007FA09F748EA0707D7601FD193FAA3F791
:1030B000B7FA87F7D1F81490072F2DDC176A93FA27
:1030C000A3FABAFA8AFA93FAA3F84FF00F0BB8FAF8
:1030D00088F84FEA8A0A4FEA88080BFA0AFA09FACE
:1030E00008F827EA0A0747EA08071762D2F80080BB
:1030F00093FAA3F7B7FA87F793FAA3F3B3FA83F334
:103100007F005B0006FA07F7984028EA070848EABC
:1031100000001060013484E7576A4FEA132898FAD8
:10312000A8FABAFA8AFA98FAA8F84FEA8A0BB8FA13
:1031300088F84FF00F0A4FEA88080AFA0BFA09FAE2
:1031400008F927EA0A0747EA09075762CEE70000AD
:10315000024B1868C0F34000704700BF00380240BF
:10316000024B186FC0F34000704700BF00380240A8
:10317000034B044A9B68C3F30313D35CD8407047E6
:1031800000380240B9930108034B044A9B68C3F31B
:103190008223D35CD840704700380240B1930108C5
:1031A000034B044A9B68C3F34233D35CD840704757
:1031B00000380240B19301080C4B0D485A68596819
:1031C00012F4800F0B4A01F03F0108BF10465A6805
:1031D0005B68C2F38812C3F30143B0FBF1F0013323
:1031E00050435B00B0FBF3F0704700BF0038024073
:1031F00000127A000024F400064B9B6803F00C03D5
:10320000042B03D0082B03D1FFF7D6BF0248704729
:10321000024870470038024000127A000024F4008F
:10322000032808B528D1344B344AD3F8903003F042
:10323000030343F44033934209D0B3F1031F0CD08E
:10324000013A934210D1BDE80840FFF7D5BFFFF720
:103250007FFF00284ED1002008BDFFF781FF003816
:1032600018BF0120C003F7E7FFF7C6FFFFF780FF95
:10327000BDE80840FFF794BF0C2817D11E4B204A29
:10328000D3F8903003F00C0343F440239342DED094
:10329000B3F10C1FE1D0043A9342D4D0FFF7ACFF56
:1032A000FFF766FFBDE80840FFF76EBFB0F5406F5F
:1032B0000FD1114B134AD3F8903003F4406343F01D
:1032C00040639342C3D0B3F10C2FC6D0A2F5806205
:1032D000B7E73028BFD1084B0B4AD3F8903003F042
:1032E000300343F440139342B1D0B3F1301FB4D054
:1032F000103AD1E70548AFE700380240020003006A
:1033000008000C000008000C200030000024F4002D
:10331000C02808B528D1324B324AD3F8903003F098
:10332000C00343F44003934209D0B3F1C01F0CD053
:10333000403A934210D1BDE80840FFF75DBFFFF768
:1033400007FF002849D1002008BDFFF709FF00381A
:1033500018BF0120C003F7E7FFF74EFFFFF708FF94
:10336000BDE80840FFF710BFB0F5407F0FD11C4B00
:103370001D4AD3F8903003F4407343F040739342F6
:10338000DDD0B3F1032FE0D0A2F58072D1E7B0F524
:10339000405F0FD1124B154AD3F8903003F44053DD
:1033A00043F040539342CAD0B3F1302FCDD0A2F5B1
:1033B0008052BEE7B0F5404FC5D1094B0C4AD3F857
:1033C000903003F4404343F040439342B7D0B3F10D
:1033D000C02FBAD0A2F58042ABE70648B4E700BFE1
:1033E000003802408000C0000002000300200030CE
:1033F000008000C00024F400006800F00300704763
:103400000069C0B2704714304058704738B503683F
:1034100004460D46DB0701D5012038BDEA686B681C
:10342000016813432A691343AA6913432D4A0A40CA
:103430001343AA680360436823F4405313436A6943
:103440004360836823F4407313438360264B9842A0
:1034500019D10320FFF7E4FE0028DDD02A68002AF6
:10346000DAD0A9695308B1F5004F35D103EB400319
:10347000B3FBF2F34FF6F0721A40C3F34203134367
:103480000020E360C9E7194B984201D10C20E1E725
:10349000174B984201D13020DCE7164B984203D1FC
:1034A000C020FFF735FFD7E7134B984202D14FF406
:1034B0004070F6E7114B984202D14FF44060C9E7E3
:1034C0000F4B984202D14FF44050EAE70D4B98421F
:1034D000A2D14FF44040E4E70344B3FBF2F39BB2C4
:1034E000CEE700BFF369FFEF001001400044004049
:1034F00000480040004C00400050004000140140D3
:1035000000780040007C0040014B1860704700BF0D
:1035100014000020054B82B01A6B02431A631B6B28
:1035200003400193019B02B0704700BF0038024086
:103530000A4B586B10F0450FFBD010F0040F074BEF
:1035400003D0042203209A63704710F0010002D0D8
:10355000012098637047024A9A637047002C01402B
:10356000FF05400008B5374A0346516B11F0450F7F
:10357000FBD011F0040F334803D0042383630320EE
:1035800008BD11F0010103D0012383631846F7E75A
:1035900002699A4201D01020F2E72B4B8363FFF7B8
:1035A00032FF0346294818400028E9D0002B27DBCA
:1035B0005A0027D4990027D4DA0027D4190127D438
:1035C0005A0127D4D90127D41A0227D45902E2D4A8
:1035D0009A0225D4D90225D41A0325D4590325D417
:1035E0009A0325D4D90325D41A0425D4590425D403
:1035F0009A0425D413F0080F14BF1A200020BFE747
:103600001C20BDE70920BBE70A20B9E70B20B7E77C
:103610000C20B5E70D20B3E70E20B1E70F20AFE790
:103620001120ADE71220ABE71320A9E71420A7E78C
:103630001520A5E71620A3E71720A1E718209FE78C
:1036400019209DE7002C0140FF05400008E0FFFD28
:103650000023F7B52A4C0827054610200E46CDE971
:1036600000334FF48A63A760E360FFF77BFF30BB52
:103670002D0440F277433720A560E360FFF772FF27
:10368000E8B94FF0FF336362A762E36A23F0F70300
:1036900043F03303E36240F27343A0603320E360FE
:1036A000FFF760FF58B9636B024640F22A410B42B4
:1036B000636B06D019070FD508230420A36303B05A
:1036C000F0BD9D02F3D502ADD4F8807005EB820504
:1036D000013245F8087CEAE79A0702D50220A06388
:1036E000EDE79B0603D520230620A363E7E7054B00
:1036F000A363009B1BBA7360019B1BBA3360DEE7B8
:10370000002C0140FF05400073B51F4C0021064608
:103710002046CDE90011FFF776FE81012FD41B4D25
:1037200069462888FFF794FF38BB012E019B16D10C
:103730005A0326D52B6837201B04A36040F2774339
:10374000E360FFF70FFFC0B90223A360062040F239
:103750004643E36002B0BDE87040FFF703BFDB0300
:103760000FD52B6837201B04A36040F27743E3603A
:10377000FFF7F8FE03460028E7D002B070BD0E2028
:10378000FBE72520F9E700BF002C0140486100203D
:10379000034B186980F00400C0F38000704700BF3D
:1037A00000180240022803D0032805D000207047EB
:1037B0004FF400730B80F9E720230B60F6E700005D
:1037C00000487047808A015B012307B58DF80730F8
:1037D000FFF7DEFF08B98DF807009DF8070003B07A
:1037E0005DF804FB08B5FFF7EFFF012807D1054B93
:1037F0001A7802F0FB021A701878C0B208BD0120D6
:10380000FCE700BF20000020184B19485A6830B56B
:1038100022F48072002487B003255A601C6003F5EF
:10382000863369465A6A42F400625A625A6A22F43E
:1038300000625A625A6C22F400625A644FF4F853E0
:1038400003940295CDE90034CDE90444FFF7DCFB95
:10385000042369460748CDE90034CDE90254CDE997
:103860000444FFF7D1FB07B030BD00BF002C01407E
:1038700000080240000C0240F0B5042089B0FFF7B8
:1038800049FE0820FFF746FE00244FF4F8530227B4
:1038900003260C250DEB0001184806940795CDE989
:1038A0000237CDE90464FFF7AFFB042302A91448F3
:1038B000CDE90237CDE90464CDE90645FFF7A4FB65
:1038C000104B11494FF480005A6C42F400625A6464
:1038D0005B6C03F400630193019B502381F8313347
:1038E0004FF400334B60FFF715FE602381F83B3344
:1038F0004FF000634B6009B0F0BD00BF000802400C
:10390000000C02400038024000E100E02DE9F341E4
:103910007623574C002501208DF807506360032360
:103920002360FEF75BFA636843F4807363604FF4CF
:103930008063A560E360636B1E0606D44FF480339A
:10394000013B626B12D01506FAD5494B494A9A637E
:1039500000238DF807309DF8073003F0FF023BB1DC
:103960009DF80700C0B202B0BDE8F0810323F0E784
:103970003F4B4FF4D57199604FF48961D9604FF492
:103980008031586B10F0450F5AD1002955D15A6B30
:1039900004229A638DF807209DF80730002B59D137
:1039A000354B01224FF080461A60314C00233720FE
:1039B000A36040F27743E360FFF7D4FD8DF8070082
:1039C0009DF8073003F0FF05002BC9D12F46DFF823
:1039D000AC8040F27743A7603720E360FFF7C2FD79
:1039E0008DF807009DF8073003F0FF02002BB7D1D8
:1039F00046EA0803A36040F26943E360636B13F097
:103A0000450FFBD0590727D504230322A3638DF864
:103A100007209DF8073003F0FF01002BA0D12046BE
:103A20000135FFF7F0FC00284FF6FF7317DB9D42CE
:103A3000CFD11B238DF8073092E7586B0139A1E7EE
:103A4000586B0029A4D04407A2D44006A2D5402137
:103A500099639FE70026A8E7064BA363D7E79D423B
:103A6000E7D0430042BF044B02221A6078E700BF50
:103A7000002C0140FF0540006C6100200000108018
:103A800070B5474E3046FFF7B7FC002800F0818044
:103A9000444D2B68042B1ED00023B36040F2C24378
:103AA000F360FFF745FD0446002850D13E4C014627
:103AB0003046FFF7A8FC042120603046FFF7A3FC46
:103AC000082160603046FFF79EFC0C21A060304664
:103AD000FFF799FCE0602B68022B27D9062B25D035
:103AE00001202B68042B58D0304B2D4D186000045A
:103AF00040F2C943A860EB60FFF71AFD044630BBF3
:103B00002B4E01462846FFF77EFC042130602846F4
:103B1000FFF779FC082170602846FFF774FC0C2140
:103B2000B0602846FFF76FFCF06010E01C4B0022ED
:103B30009A6040F24342DA605C6B14F0450FFBD0B0
:103B400014F0040F164E04D004230324B36320465C
:103B500070BD14F0010402D00124B463F7E73046CD
:103B6000FFF74EFC032801D01024F0E7114B21464B
:103B70003046B363FFF747FC10F4604F01D1000CEF
:103B8000AFE7810407D44204EED40304A8D50F2480
:103B9000DDE72524DBE71324D9E70024D7E700BFBE
:103BA000002C01406C6100204C6100204861002025
:103BB0005C610020FF0540009D4A0346F0B5166891
:103BC0009C4A9D4C012E126880F85660A0F8542043
:103BD00022684FEA92710170C2F383614170C2F3AF
:103BE00001618170C2F30741C170C2F30721D2B2F3
:103BF0000171427162684FEA12614FEA12254FEA81
:103C00000111C180C188C2F3035089B241EA0001A9
:103C1000C2F3C030D980C2F303411972C2F3072145
:103C20005872C2F380309872C2F34030D872C2F337
:103C3000003018734FF000005873A06800F2DB806A
:103C4000A902C0F3C035920001F4406102F47F7212
:103C5000196119690A43C0F307211A611A6942EA16
:103C600090721A61C0F3C2621A75C0F302625A758B
:103C7000C0F342529A75C0F38242DA75C20B02F069
:103C800006021A761A7E2A431A7601221F691D7EC1
:103C90001E7A023502FA06F6AA401E654FEAE27C59
:103CA000A2FB062506FB0C557E1C07FB0555A2FB57
:103CB00006263544C3E91225C1F3801249005F4D41
:103CC00001F07E015A769976C0F3C0119A7E0A43BC
:103CD0009A7600F07F02DA76E2680124D10FC2F30F
:103CE00081501977C2F341715977C2F38261997794
:103CF000910D01F00C01D977D97F01430020D977CC
:103D0000C2F3405183F82010C2F3004183F8210030
:103D100083F82210C2F3C03183F82310C2F380313C
:103D200083F82410C2F3403183F82510C2F3003128
:103D300083F82610C2F3812183F82710C2F30121F2
:103D4000C2F3460283F8281083F829202A6883F8F2
:103D50002A40110EC2F3072683F82C10C2F3074144
:103D600012060902D985D98D89B23143D9851A63E2
:103D70006A68196B160E41EA06411963110A1E6B37
:103D800001F47F4131431963C2F307211E6BD2B2A4
:103D90003143196383F83420AA68110E83F8351073
:103DA000110C0906996311029E6B120201F47F0146
:103DB00092B231439963996B0A439A63EA68996BAB
:103DC000C2F3035541EA1261996393F83C10294309
:103DD000C2F3072583F83C10110AC2F3460201F42E
:103DE0007061D987D98F89B22943D98783F8402058
:103DF00083F84140F0BD022E7FF45EAF110401F460
:103E00007C111961010E1A6942EA01221A61C0F39C
:103E1000074219690A43C0F307211A611A6901327E
:103E2000550BD204C3E912254FF400721A6543E71B
:103E30006C610020486100205C6100204C61002022
:103E4000034B40F2474298600720DA60FFF78ABBD5
:103E5000002C01400E4A1268032A08B516D0022A27
:103E600012D8B0F5805F11D0B0F5006F08D10120F5
:103E7000FFF74AFC18B9074B4FF480725A6008BD2F
:103E80000028F5D02620FAE70020F8E72720F6E7FB
:103E90006C610020002C0140002313B58DF8073021
:103EA000FFF7B2FCFFF7E8FCFFF730FD8DF80700E5
:103EB0009DF8073023B19DF80700C0B202B010BDD5
:103EC000FFF7DEFD8DF807009DF80730002BF2D1DB
:103ED000194C2046FFF770FE8DF807009DF807305B
:103EE00003F0FF011BBBB4F854000004FFF7A8FF68
:103EF0008DF807009DF80730B3B94FF40060FFF765
:103F0000A9FF8DF807009DF807301BB10B4B1B680C
:103F1000032B09D194F85630094A012B40F60213BD
:103F200088BF4FF4106353609DF80730C3E705481E
:103F300011F014FFDEE700BFE06000206C6100209C
:103F4000002C0140056C01087FB500214020CDE91F
:103F50000211FFF7DFFA04230F48CDE900310123F6
:103F6000CDE904316946FFF74FF8FFF74DFCFFF745
:103F700083FCFFF791FF094B1A7850B902F0FE025B
:103F80001A701A7802F0FB021A70187807B05DF800
:103F900004FB42F00102F3E7001802402000002079
:103FA00070B5054698B10B4B0D200B4E1B681B04DA
:103FB000B36040F24D43F360FFF7D4FA044620B9F2
:103FC00001463046FFF71FFA2860204670BD2624C0
:103FD000FBE700BF48610020002C0140002307B52B
:103FE0000193FFF7F1FB012803D0FF2003B05DF838
:103FF00004FB01A8FFF7D4FF0028F6D10198C0F315
:104000004320F3E708B5FFF7E9FF042804D0FF28B1
:1040100014BF0120022008BD0020FCE7044B002251
:104020000C209A6040F24C42DA60FFF79BBA00BF66
:10403000002C014037B54FF0FF331E4A1E491F4880
:1040400001931368EBB1002313604FF0FF331C4A58
:104050000193516B8B0421D41A4C00252368012B4A
:1040600024D02846019B13B9002808BF0420144B14
:10407000154A9A63114B1A780AB11878C0B203B086
:1040800030BD0B68002BDED10378002BDBD1019B08
:10409000002BD8D0019B013B0193D2E7019B002B61
:1040A000DAD0516B019B013B0193D3E7FFF7B6FFD9
:1040B0002560D7E7386100203C6100204061002086
:1040C000002C014044610020FF05400038B5194A2A
:1040D0004FF0FF3318491948146824B90C6814B913
:1040E000047804B9E3B900234FF0FF341360144B94
:1040F0005A6BD20400D5ACB9124D2B68012B14D1E8
:10410000FFF78CFF00232B600CB900B904200C4B87
:104110000D4A9A63094B1A780AB11878C0B238BDB3
:10412000013BD9E7013C5A6BE3E7002CEED00020BD
:10413000EDE700BF386100203C61002040610020B5
:10414000002C014044610020FF0540000D4B9A6D9A
:1041500022F001029A6500229A654FF074629A601B
:10416000094A1A66094A5866D9659A652722DA66A5
:104170009A6D42F014029A659A6D42F001029A65B6
:10418000704700BF00640240802C01406054A008CA
:104190002DE9F04117469846294A0023294C012170
:1041A0001370294ABDF818501360284A079E116001
:1041B000E362E36B06FB05F143F48D73E363FFF702
:1041C000C5FFE36A102043F00803E362204B1B683D
:1041D000022B4FF48A6304BF4FF400757F0AA56079
:1041E00008BF47EAC857E360FFF7BCF928BB194B83
:1041F00037201B681B04A36040F27743E360FFF79E
:10420000B1F9D0B940F25743A6601720E360FFF739
:10421000A9F990B940F25943A7601920E360FFF76C
:10422000A1F950B94FF0FF3375436362A562E36AA9
:1042300023F0F70343F09103E362BDE8F08100BF90
:1042400040610020002C01403C61002044610020BE
:104250006C610020486100202DE9F041ADF5027D40
:104260000546FFF7B1FA01280E46044636D115F08F
:1042700003031CD08F18BE4205D1002420460DF543
:10428000027DBDE8F0814FF40072294602A806F1D4
:10429000010811F006FF0122314602A8FFF7DCFFFA
:1042A00004460028EAD105F500754646E3E7019289
:1042B0004FF40072284600924A02FFF769FF002877
:1042C000DCD1FFF703FF0546FFF79CFE0128FBD07A
:1042D0000228D3D02C1E18BF0124CFE70324CDE73A
:1042E0000D4B9A6D22F001029A6500229A654FF0FB
:1042F00074629A60094A1A66094A5866D9659A65CD
:104300002722DA669A6D42F014029A659A6D42F09D
:1043100001029A65704700BF00640240802C014092
:104320002054A0082DE9F04115461F46214A0023DC
:10433000214C01211370214ABDF818601360204AF6
:10434000DDF81C801160E362E36B08FB06F143F4C7
:104350009573E363FFF7C4FFE36A102043F008039B
:10436000E362184B1B68022B4FF48A6304BF4FF4BF
:1043700000766D0AA66008BF45EAC755E360FFF7FF
:10438000F1F8A0B94FF0FF3308FB06F61220636284
:10439000A662E36A23F0F70343F09303E36240F27B
:1043A0005243A560E360BDE8F041FFF7DBB8BDE82C
:1043B000F08100BF40610020002C01403C610020E2
:1043C000446100206C6100201D4B70B51B78ADF579
:1043D000027D0446DB0731D410F0030317D08D189B
:1043E000A94203D100200DF5027D70BD012202A873
:1043F0004E1CFFF7E9FF0028F5D102A920464FF433
:10440000007204F5007411F04CFE3146E8E70192A9
:104410004FF4007200924A02FFF784FF08B10120B6
:10442000E1E7FFF707FE0446FFF7ECFD0128FBD0AC
:104430000228F4D0201E18BF0120D4E70320D2E7C1
:1044400020000020174A184B516B11F4807F10D0C8
:10445000002119704FF4807191630121134A11609A
:104460001049CA6B22F4414222F03A02CA6318781A
:104470007047880703D5022191631970F0E7080798
:1044800004D50821916304221A70E9E7880603D550
:10449000202191630622F7E7C906E1D51021916337
:1044A0000522F1E7002C0140406100203C61002022
:1044B000FFF7C8BF054B1A68120105D5044A012150
:1044C00011604FF004629A60704700BF00640240C0
:1044D00038610020FFF7EEBF70B5ADF5805D40F2AA
:1044E0002F12584984B0584C584811F0CFFB012284
:1044F0005749584801F090FF5249207040F231125C
:10450000524811F0C3FB21780D2940F081805248B8
:10451000012611F023FC40F20223002269464C4898
:10452000CDE900364FF40073CDE902234FF48053F8
:1045300004AA02F06FFB05462070002860D14748AE
:1045400011F00CFC2A464249284601F065FF32462C
:1045500020703F493F4801F05FFF2070404811F054
:10456000FDFB0A223F49404801F07EFF20700028F1
:104570005DD13E4D3E4811F0F1FB3E492B462D22C8
:10458000394802F08AF90146207000284DD1296887
:10459000394811F07BFB3749384811F077FB324836
:1045A00002F02AFB364811F0D9FB01222D492E4892
:1045B00001F05AFF207000283FD12C4D314811F0F6
:1045C000CDFB31492B464FF48072274802F08DF81D
:1045D0000146207078BB29682C4811F057FB2A4906
:1045E0002B4811F053FB204802F006FB012218492A
:1045F00000200DF5805D04B0BDE8704001F00CBFF7
:104600000146244811F042FB0DF5805D04B070BDF9
:1046100039B121480DF5805D04B0BDE8704011F05E
:1046200035BB1E4811F09AFB98E71D48B5E71D48B9
:1046300011F094FBB6E71C48D3E71C4811F08EFB41
:10464000D1E700BFC993010874620020226C010801
:104650001F6C0108D86400202A6C0108966C0108C0
:104660002E6D0108606D01087862002070620020E4
:10467000716D010821000020A06D0108BD6D0108C9
:10468000096E0108396E0108706100204D6E010845
:104690006A6E0108BF6C0108E36C01080E6D010829
:1046A000D26D0108EC6D01087E6E0108976E01085D
:1046B000012801D1FFF796B801207047012801D1E8
:1046C000FFF742BC01207047034608461146009A96
:1046D000012B01D1FFF778BE04207047034608463E
:1046E0001146009A012B01D1FFF7B6BD0420704797
:1046F000034608461146012B01D1FFF753B80420A9
:1047000070470068704703460068596870470B0A95
:10471000017043700B0C090E8370C1707047110A51
:10472000027003714170110C120E8170C2701A0A6E
:1047300042711A0C1B0E8271C37170470A4B1B68C1
:1047400083B11A7882420DD85A78824208D29A7878
:10475000824207D8DB78834234BF002001207047B3
:1047600001207047002070473867002083698A1E47
:10477000023B934210B585BFD0E910314489002037
:10478000E2FB043194BF0146184610BD034600F118
:104790000B010020C20142EA500213F8010B50FA4B
:1047A00082F28B42D0B2F5D1704710B54278044600
:1047B0000020013203465201022B4FEAC03108BFEC
:1047C000042341EA5001E05C013310FA81F19A427E
:1047D00088B2F1D810BD0268014610B5AAB11446DE
:1047E00014F8013B1F2B0ED93A2BF9D11378A3F102
:1047F0003000C3B2092B08D80232944205D10228F6
:1048000003DC0C6010BD0020FCE74FF0FF30F9E73F
:1048100030B508220123094D01EA03045B00002C96
:1048200018BF80F00100013ADBB240F3000404EA53
:10483000050484EA5000EFD130BD00BF2083B8EDFD
:1048400038B50D46044618B9092000232B6038BD41
:104850000368002BF8D01A78002AF5D08188DA880E
:104860009142F1D15878FFF723FF10F00100EBD10E
:104870002368EBE7F7B50379044613B300F160074B
:10488000012539460095D0E908234078FFF726FF37
:10489000D0B92071E169D4E90823D4E90C60961BF2
:1048A00063EB00008E4270F100000AD2E07802282B
:1048B00007D1521800953946607843F10003FFF79D
:1048C0000DFF002003B0F0BD2846FBE738B50546D4
:1048D000002435F8020B08B9204638BD03F0D6FA9B
:1048E000E303C2B2C0F3072043EA540312FA83F38E
:1048F000C3F34E0444EAC33410FA84F4A4B2E8E7E4
:10490000C2F307238A76CB760378032B01BF120C00
:104910000A75120A4A757047F7B515461E460446D1
:10492000D0E90823B34208BFAA4214D0FFF7A2FF80
:1049300078B901272A46334604F160010097607870
:10494000FFF7C2FE18B14FF0FF3538462E46C4E9D6
:10495000085603B0F0BD0020FBE70000F8B50021C9
:104960004FF0FF364FF0FF3704460171C0E908678A
:10497000FFF7D2FF00284BD1B4F85E524AF6552318
:104980009D4207D10B22254904F1600011F0C6FABF
:1049900000283FD094F86030EB2B03D01833DBB203
:1049A000012B2ED84AF655239D4206D108221C49D8
:1049B00004F1B20011F0B2FA48B3B4F86B30B3F5B9
:1049C000007F1ED194F86D30DBB15A1E1A4218D107
:1049D000B4F86E30ABB194F87030013B012B10D8B5
:1049E000B4F871306BB1B4F873307F2B06D804F192
:1049F0008000FFF786FEB0F5803F02D3B4F8763032
:104A000053B94AF65520854214BF03200220F8BD51
:104A10000420FCE70120FAE70020F8E7AA6E01086D
:104A2000DD6E010802392DE9F84F174699460D0B46
:104A300001F007044FF0010B0646C1F3C80A0BFA58
:104A400004F4D0E91232E4B2ED1842F100082A462B
:104A500001354346304648F10008FFF75DFF18B1C5
:104A60000120BDE8F88F9A4606EB0A0292F8603002
:104A7000234214BF01210021494513D06340013F67
:104A800082F8603086F804B0EBD0640014F0FF04C4
:104A9000EAD10AF1010301244FF0000AB3F5007FC7
:104AA000E1D3D4E70220DCE70129F8B50C4640F257
:104AB0009E800568AB698B4240F299802B78013B60
:104AC000032B00F29480DFE803F0022F415701EB43
:104AD00051062846D5E90C13720A521843F1000317
:104AE000FFF71AFF10B14FF0FF30F8BD771CC6F387
:104AF000080628467A0A2E44D5E90C1396F8606019
:104B0000521843F10003FFF707FF0028EBD1C7F36A
:104B100008072F4497F8603046EA0320E3074CBFAC
:104B20000009C0F30B00E0E70A0A2846D5E90C1398
:104B3000521843F10003FFF7EFFE0028D3D16400C1
:104B400004F4FF742C44B4F86000CEE7CA09284688
:104B5000D5E90C13521843F10003FFF7DDFE0028DE
:104B6000C1D1A40005F1600004F4FE742044FFF7F5
:104B7000C8FD20F07040B8E7D0E90431C77953EAA6
:104B8000010201D0826802B98FBB8668022F6A8950
:104B9000A4EB06060FD1581E4FF0000341F1FF3180
:104BA000400A40EAC150490AFBF7A2FB86421ED8E0
:104BB0001FD0601C99E7032F02D18369B342F8D854
:104BC000C369B3B9E2092846D5E90C13521843F179
:104BD0000003FFF7A1FE002885D1A000603500F496
:104BE000FE702844FFF78DFD20F000407DE7012096
:104BF0007BE76FF0004078E72DE9F0410568044657
:104C00000E462B78042B14BF4FF400124FF0805245
:104C10008A4202D80220BDE8F081CA06FAD187682C
:104C200001635FBB022B19D82B89B3EB561FF1D957
:104C3000D5E90E0150EA01036763C4E90E01E9D02A
:104C4000730A6035C6F308061B184FF000003544A0
:104C500041F100012564C4E90E31DCE7AB6BC7719B
:104C6000002BE1D0B5F80A801F464FEA4828464598
:104C7000394605D22846FFF779FDDBE73B46F1E7E9
:104C80002046FFF711FF431C074607D00128C1D972
:104C9000AB698342BED9A6EB0806E8E70120BAE774
:104CA00001292DE9F84305460C46164608D98369C3
:104CB0008B4205D90378022B67D003D8012B23D070
:104CC000022077E0033B012BFAD8CA09D0E90C1384
:104CD000521843F10003FFF71FFE00286AD12B464C
:104CE000A40013F8602B04F4FE74042A07D01819EA
:104CF00026F07046FFF705FD00F070400643314690
:104D00001819FFF704FD34E001EB5109D0E90C1349
:104D10004FEA5922521843F10003FFF7FDFD002826
:104D200048D114F0010405F1600809F10107C9F345
:104D30000809F3B228461EBF18F8092002F00F0236
:104D400042EA03134FEA572218BFDBB208F80930D2
:104D500001232B71D5E90C13521843F10003FFF71F
:104D6000DBFD38BBC7F308073CB1C6F3071608F8EC
:104D70000760012300202B711CE018F80730C6F3F0
:104D8000032623F00F031E43F1E70A0AD0E90C13B0
:104D9000521843F10003FFF7BFFD58B9640005F155
:104DA000600304F4FF741E551A19C6F30726012385
:104DB00056702B71BDE8F883F8B504460E461746C9
:104DC000E3690BB91846F8BD012BA6EB0305206873
:104DD00014BFAA1C3A46691CFFF762FF0028F2D1F3
:104DE000E369013BE361EBE770B5C3790446032B4C
:104DF00001D0002070BD81688369CD18A94202D11D
:104E00000023E371F5E74E1C20683246FFF748FFA8
:104E10000028EFD13146F1E701292DE9F843064694
:104E20000C461746056802D80220BDE8F883AB6936
:104E30008B42F9D97AB9A14621463046A046FFF700
:104E400033FE0446B0B92B78042B02D1002F44D195
:104E5000F7710020E9E72B78042B02D1C379022BEC
:104E6000E9D04FF0FF3239462846FFF719FF0028F6
:104E7000E1D0DAE70128D7D0421C01D10120D4E7E4
:104E80002B78042B10D1D5E90532023A934213D383
:104E900008F10102A24203D02B78042B13D0A146C3
:104EA000AB69A342C8D8CEE7002241462846FFF7A7
:104EB000F7FE0028E7D0B8E701336B616B7943F068
:104EC00001036B71E4E70023A2EB0902494628467F
:104ED000FFF7A8FD0028E2D0A7E7F3798BB9B46803
:104EE000BC4202D10223F371B3E721463046FFF7FB
:104EF000DBFD012898D9431CC0D001348442EFD097
:104F0000A7E7032BA5D1B368BB42A2D8B26913446B
:104F1000BB42E7D29DE72DE9F74307460D46FFF771
:104F2000A9FC044650BB07F16008294638464FF0FB
:104F30000109FFF71BFC4FF4007205460E46C7E956
:104F400008012146404611F013F87B899C4206D3A4
:104F50007889001B18BF012003B0BDE8F0832A4602
:104F60003346CDF8009041467878FFF7B7FB01351E
:104F700046F100060028EBD10134E6E70120EBE71B
:104F8000F7B50446FFF776FC054600284AD1677955
:104F9000012F3FD123786071032B45D104F16006C6
:104FA00001464FF40072304610F0E2FF52234122D6
:104FB000722184F8603004F5127084F86130612346
:104FC00084F8632084F8623084F8473284F844120D
:104FD00084F8451284F846226169FFF798FB21693D
:104FE00004F51370FFF793FB552384F85C523146A8
:104FF00084F85E32AA2384F85D5284F85F32D4E9E3
:105000000A23013243F10003C4E9082300976078C2
:10501000FFF764FB002260781146FFF769FB003858
:1050200018BF012003B0F0BD042B6078F2D104F169
:105030006005D4E90A232946C4E908230097FFF74D
:1050400043FB03460028E5D1D4E90512023A914218
:1050500013D8511A6420A1FB0001FBF749F9C3B230
:1050600094F8D02060789A42D4D084F8D0300123CC
:1050700029460093D4E90823CAE7FF23F0E700009C
:1050800000232DE9F04F85B00B600E461546FFF763
:10509000A2FB0028C0F26282BD4B53F82040002CD6
:1050A00000F05E82346005F0FE05237860786BB115
:1050B000FFF7FEFAC30709D4002D00F080814707EF
:1050C00040F17D810A2005B0BDE8F08F00236078B3
:1050D0002370FFF7F3FAC60700F144820DB14107D0
:1050E000F0D4002200232046FFF738FC022840F0CD
:1050F000188194F82232EE2B40F0F0800122002338
:105100002046FFF709FC002840F0078104F1600702
:105110000C22A049384610F001FF0546C8BB04F137
:105120006C00FFF7EEFAA0F15C030646B3F5D27F00
:105130002FD84FF0FF33A5F110021846032A88BF7D
:10514000795D05F1010598BF0021FFF761FBAE42D3
:105150000346F0D1DB4304F17000FFF7D2FA83423B
:1051600017D104F1B400FFF7CCFA802811D104F173
:10517000B000FFF7C6FA802806460AD804F1A80056
:105180000025FFF7C0FADFF814A280468946B54231
:1051900001D10D2097E7C5F3960220464FEAC51BC3
:1051A00012EB080249F10003FFF7B6FB002840F0BC
:1051B000B4800BF4C07B1022514607EB0B0010F0BB
:1051C000ADFE08B10135E2E70BF120003844FFF7EE
:1051D0009AFA02460B462046FFF7C0FB0128F1D899
:1051E0000128D4E9082540F0EC8004F16A010B2382
:1051F00011F8016F002ECCD10133402BF8D1B4F857
:10520000C830B3F5807FC4D194F8CC30092BC0D11D
:1052100004F1A800FFF777FA074604F1B400FFF79E
:1052200070FA94F8CE30E061012BE370B1D194F8BC
:10523000CD00834098B260810028AAD004F1BC0060
:10524000FFF75FFA824654488245A2D80AF102006D
:105250009BB2A06104F1B8000AFB03F3C4E90A257C
:10526000FFF74FFA10EB020904F1B00045F1000816
:10527000C4E91098FFF745FA801845F1000C13EBCC
:10528000090348F10008BF1841EB05019F4271EB8B
:105290000801C4E90C0CFFF47CAF354604F1C000F2
:1052A000FFF72FFAC4E90E067DB96389B3427FF692
:1052B00070AFA16B2046FFF759FA3218204641F132
:1052C0000003FFF729FB40BB0136631993F86030F8
:1052D000812B2CD02035C5F30805E5E76E4604F296
:1052E000262304F26621324618461033FFF709FAE6
:1052F00042F8040B8B42F7D1002556F8042B72B10B
:1053000000232046FFF72AFB01287FF669AF01350D
:10531000042DF2D104287FF43CAF0120D3E6032012
:10532000F5E70428F9D001287FF65AAF31E705F1F7
:10533000140004F160063044FFF7E3F90128054644
:105340007FF627AFA36983427FF623AF821E63896E
:105350005343D4E910125B1842F10002C4E912323F
:10536000D4E90C13EA092046521843F10003FFF771
:10537000D3FA03460028D0D105F07F0006EB800069
:10538000FFF7BFF9421C0BD00135A842E8D000E777
:10539000A46B0020606A0108FDFFFF7F15940108DF
:1053A00004266371C4E904006F4A26701388013330
:1053B0009BB21380E3806D4BE3606D4B236500204F
:1053C00081E6B4F86B30B3F5007F7FF4E2AEB4F859
:1053D000767027B904F18400FFF793F9074694F833
:1053E0007030E761591EE37001293FF6D2AE94F8A0
:1053F0006D606681002E3FF4CCAE711E31427FF4A9
:10540000C8AEB4F8718018F00F0FA4F808807FF4CC
:10541000C0AEB4F8730018B904F18000FFF771F959
:10542000B4F86E90B9F1000F3FF4B3AE07FB03FC84
:1054300009EB181EE6447045FFF4ABAEA0EB0E017D
:10544000B142B1FBF6F3FFF4A4AE4A498B423FF6FA
:10545000A0AE4FF6F5718B426BD840F6F576B342AD
:105460008CBF0226012619EB020003F1020345F16D
:1054700000011EEB020EA36145F10009032EC4E9F1
:105480000A25C4E90C01C4E910E954D1B4F88A1022
:1054900058EA01017FF47DAE9B0004F18C00FFF718
:1054A00030F903F2FF13B7EB532FC4E90E01FFF4F9
:1054B00070AE4FF0FF33032EC4E904334FF0800386
:1054C00063717FF471AFB4F89030012B7FF46CAF4F
:1054D0000132204645F10003FFF71EFA00287FF451
:1054E00063AF254B607104F16000FFF70AF9984241
:1054F0007FF45AAF03F1FF5304F51170FFF701F980
:1055000003F50053203398427FF44EAF1B4B04F554
:105510001770FFF7F6F898427FF446AF04F5127063
:10552000FFF7EFF8606104F51370FFF7EAF8206108
:105530003AE7032697E7B8F1000F3FF42AAE1CEBD9
:1055400000004FEA430C41F10001022E1BBF9C44B6
:1055500003F00103634603EB5C03A2E70B20B2E513
:105560000C20B0E50320AEE5A26B002042670020CE
:1055700042690020F5FFFF0F52526141000055AA19
:10558000012810B538BF012001F11004082340F3B1
:105590000002013B02F0234282EA5000F7D101F8F9
:1055A000010BA142F2D110BD2DE9F84F0646056866
:1055B000884649B92F69C7B1AB69BB4298BF01277B
:1055C0006B69A3B9002405E0FFF76EFA01280446D1
:1055D00003D801242046BDE8F88F421C00F0DC808F
:1055E000AB698342F6D84746EAE70127E8E72A781D
:1055F000AB69042A40F08A80A7F1020A023B4FF00F
:10560000010B9A4528BF4FF0000AD1464FEA1932E4
:105610002846D5E91213521843F10003FFF77CF92D
:1056200000283BD109F00703A869C9F3C8010BFAA8
:1056300003F30238DBB26A184C4609F1010992F80B
:105640006020814502EA030233BF5B0000234FF470
:105650000071DBB228BF9946B2B90234631E03332E
:10566000B8D80123214628461A46FFF7DBF902285D
:10567000AFD0012800F09080B8F1000F13D10223C1
:10568000F3710028A5D130E0CA450AD0002BD2D151
:105690000131B1F5007FB9D20123CCE74FF0FF34DF
:1056A000DCE70024DAE7F379022B07D17B1CA34265
:1056B000E7D0B368FB1AB3610323F37108F1010269
:1056C000F369A24205D113B10133F361D9E7022393
:1056D000FBE70BB90123F361224641463046FFF751
:1056E0006BFB002855D10123F3616B692C61002B02
:1056F0003FF470AFAA69023A93423FF66BAF013BA9
:105700006B616B7943F001036B7163E7474515D11A
:105710007C1C3046A34298BF02242146FFF7C4F9FF
:1057200001283FF456AF431C36D0F8B1D5F810909D
:10573000B9F1010F02D9AB694B4500D8B9464C46C7
:105740000134AB69A34204D8B9F1010F3FF43AAF79
:10575000022421463046FFF7A7F948B101283FF45B
:1057600038AF013018D04C45EAD12BE7002CE5D0FA
:105770004FF0FF3221462846FFF792FA48B9B8F1B8
:10578000000FB2D0224641462846FFF789FA00288A
:10579000ABD001287FF41DAF4FF0FF341AE72DE99D
:1057A000F84306688946076B044633782037042B94
:1057B00014BF4FF400134FF08053BB429EBF002232
:1057C0000023C0E90E23D0E90E3253EA020113D0C0
:1057D000C7F30808B8F1000F42D10133416B42F121
:1057E0000002C0E90E3251B93389B3EB571F37D8E5
:1057F00000220023C4E90E230420BDE8F883738946
:10580000013B13EA57232BD1FFF74EF90128054638
:1058100001D80220F1E7421C01D10120EDE7B36974
:10582000834216D8B9F1000FE2D0616B2046FFF732
:10583000BBFE0546D0B10128EBD0431CEDD001469C
:105840003046FFF768FB0028E7D1E37943F0040313
:10585000E371294630466563FEF788FFC4E90E010F
:1058600060360020276346442664C6E70720C4E765
:10587000F8B50E46002104460768FFF7BDF9A0B948
:1058800005463846D4E90E23FFF746F868B93A785A
:10589000236C042A1B780CD11B060ED5054601216A
:1058A0002046FFF77CFF0028EBD0042808BF072024
:1058B00006E0E52B01D0002BF0D10135B542EED149
:1058C000F8BDF8B504460068D4E90E23056DFFF76E
:1058D00023F820B9236C1A78852A01D00220F8BD5C
:1058E0002A4603F1200153F8040B8B4242F8040BC3
:1058F000F9D16E7801367601A6F16003B3F5007F29
:10590000ECD800212046FFF74AFF0428E6D0002803
:10591000E5D12068D4E90E23FEF7FEFF0028DED192
:10592000236C1A78C02AD9D105F1200203F1200195
:1059300053F8040B8B4242F8040BF9D195F823304D
:105940000F222C33B3FBF2F3B6EB431FC6D3402731
:1059500000212046FFF723FF0428BFD00028BED136
:105960002068D4E90E23FEF7D7FF0028B7D1236CB7
:105970001A78C12AB2D1B7F5187FB0D0EA1903F16D
:10598000200153F804CB8B4242F804CBF9D12037E5
:10599000BE42DDD8B7F5187FA1D82846FEF705FF2F
:1059A0006B88181A18BF0120400098E7F8B5036803
:1059B000054601271C6D2046FEF7F7FEA070000A81
:1059C0006678E0702846296DFFF716F920B10228A5
:1059D00028BF0220C0B2F8BDD5E90E232868FEF723
:1059E0009BFF0028F3D12B6C04F1200254F8041B18
:1059F000944243F8041BF9D12B681F71002EE6D0A6
:105A000000212846013EFFF7CAFEDFE72DE9F843F3
:105A1000FF270446066804203D46D4E90E2352EAD7
:105A2000030102D1D8B1042062E03046FEF774FFD2
:105A300000285DD1206C0378002BF4D03278042A42
:105A400010D1852B4ED1236B20462365FFF739FFFC
:105A500000284DD1336D1B7903F03F03A371002063
:105A6000BDE8F883C27AE52B02F03F02A27146D06E
:105A70002E2B44D022F02001082940D00F2A43D1F8
:105A800059063AD503F0BF05236B477B2365437B5B
:105A9000BB4234D1428B92BB03780D21D6F80CE087
:105AA0004FF6FF7923F04003DFF87080013B4B4352
:105AB000012118F801CB30F80CC011B3FF2B1ED810
:105AC0002EF813C06146013301320D2AF1D102785C
:105AD000520605D521B1FF2B11D800222EF8132034
